:020000040001F9
:10900000303B0020C5930100EF930100F193010074
:10901000F3930100F5930100F793010000000000B5
:10902000000000000000000000000000F9930100B3
:10903000FB93010000000000FD930100FF9301007D
:109040000997010001940100D59A010001940100E3
:109050000194010000000000A595010001940100A9
:1090600001940100019401000194010001940100A8
:109070000194010001940100019401000194010098
:109080000194010061970100019401000194010025
:109090000194010001940100D197010001940100A5
:1090A0000194010001940100000000000000000094
:1090B0000194010001940100000000000000000084
:1090C00000000000000000000000000000000000A0
:1090D0000000000000000000000000000000000090
:1090E0000000000000000000000000000000000080
:1090F0000000000000000000000000000000000070
:10910000000000000000000000000000000000005F
:10911000000000000000000000000000000000004F
:10912000000000000000000000000000000000003F
:10913000000000000000000000000000000000002F
:10914000000000000000000000000000000000001F
:10915000000000000000000000000000000000000F
:1091600000000000000000000000000000000000FF
:1091700000000000000000000000000000000000EF
:1091800000000000000000000000000000000000DF
:1091900000000000000000000000000000000000CF
:1091A00000000000000000000000000000000000BF
:1091B00000000000000000000000000000000000AF
:1091C000000000000000000000000000000000009F
:1091D000000000000000000000000000000000008F
:1091E000000000000000000000000000000000007F
:1091F000000000000000000000000000000000006F
:10920000DFF810D000F090F900480047F5BF0100EA
:10921000AFF30080303B002030B450E8012F93B210
:10922000C48923448489A34228BF1B1B0489A34209
:1092300002BFBFF32F8F002007E0C3EA020340E81C
:109240000134002CE9D14FF001000A6030BC7047B6
:1092500050E8012FC2EA024240E801210029F7D17B
:10926000704730B450E8022F1FFAA2F3C488A3421B
:1092700002BFBFF32F8F00200DE0C48923448489EF
:10928000A34228BF1B1BC2EA034340E80234002C60
:10929000E8D14FF001000A6030BC704750E8022F5F
:1092A000C2EA224240E802210029F7D17047034672
:1092B00053E8022FD988B2EB324F4FF0000017BFAE
:1092C00092B241EA014142EA014104E05A68B2EB3C
:1092D000324F08BF012043E80212002AE8D170474C
:1092E00030B4044654E8000F0D4644E80053002B08
:1092F000F8D1156030BC704730B4044654E8000F14
:1093000040EA010544E80053002BF7D1156030BC5A
:10931000704730B4044654E8000F00EA010544E801
:109320000053002BF7D1156030BC704730B40446B1
:1093300054E8000F80EA010544E80053002BF7D100
:10934000156030BC704730B4044654E8000F00EBA1
:10935000010544E80053002BF7D1156030BC70477D
:1093600030B4044654E8000FA0EB010544E8005374
:10937000002BF7D1156030BC704770B404464FF035
:10938000000054E8006F0D68AE4207BF44E80023B8
:10939000012044E800630E60002B1CBF0020F0E7B2
:1093A00070BC704730B4044654E8000F88422CBFAC
:1093B000451A054644E80053002BF5D1156030BC32
:1093C000704700000F4800680F4909680A280AD151
:1093D000002908D10D4802686FF070031A404FF061
:1093E00040031A4302600A4880470A480047FEE7E4
:1093F000FEE7FEE7FEE7FEE7FEE7FEE7FEE7FEE745
:10940000FEE700003001001034010010E40E0040BF
:10941000D5970100019201002DE9F05F054600207B
:1094200092469B4688460646814640241BE02846D5
:1094300041464746224600F067F853465A46C01A4E
:10944000914110D311461846224600F016F82D1A05
:1094500067EB01084F4622460120002100F00DF87D
:1094600017EB00094E41201EA4F10104DFDC484641
:1094700031462A464346BDE8F09F202A04DB203AC5
:1094800000FA02F1002070479140C2F1200320FA57
:1094900003F3194390407047004870477CF4010083
:1094A00040EA01039B0703D009E008C9121F08C066
:1094B000042AFAD203E011F8013B00F8013B521EE6
:1094C000F9D27047D2B201E000F8012B491EFBD25D
:1094D00070470022F6E710B513460A4604461946BF
:1094E000FFF7F0FF204610BD421C10F8011B0029B9
:1094F000FBD1801A7047034611F8012B00F8012BAD
:10950000002AF9D118467047202A04DB203A21FAB4
:1095100002F00021704721FA02F3D040C2F120028C
:109520009140084319467047064C074D06E0E06835
:1095300040F0010394E8070098471034AC42F6D39A
:10954000FFF762FE4CFB01006CFB010070B58C184C
:1095500010F8015B15F0070301D110F8013B2A1147
:1095600006D110F8012B03E010F8016B01F8016B34
:109570005B1EF9D12B0705D40023521E0DD401F830
:10958000013BFAE710F8013BCB1A921C03E013F8F9
:10959000015B01F8015B521EF9D5A142D8D300202E
:1095A00070BD00002DE9F04700268AB0DFF8509129
:1095B000B0464FF48075012437460696284603F0DE
:1095C0005DFB38B1D9F80403204203D0284603F0EC
:1095D0004BFB26432D1D64007F1CADB2082FEDD33D
:1095E0004FF4BE74204603F049FB48B1204603F017
:1095F0003BFB46F0004606AA0121002003F020FBB9
:10960000404D16F0FF0F15D00127002437420DD032
:1096100009EB8401D1F81005D1F81015C0F304202E
:1096200055F82420C1F3014102B190477F00641C2A
:10963000082CEBD3002E5FDA4FF0FF30CDF810800E
:1096400054E0281910F8507F90F9000027F0C00866
:10965000401C3BD007A9404602F0A8FF10B34FEAD8
:109660009719404601F0E0FE55F820701FB1B9F19E
:10967000030F03D006E0B9F1030F27D104A9404638
:1096800002F09CFF4FF0A04101EB8800D0F80007EA
:1096900006A9C0F3014A404602F088FF18B1BAF1AA
:1096A000020F03D012E0BAF1030F0FD1B9F1030F8B
:1096B00008D1BAF1020F1DD00221404603F0A4FAEE
:1096C000761CF6B217B149464046B847641C042CD4
:1096D000B7D3002E10D06A460121002003F0B0FA63
:1096E00006990098884207D00690049800263446D0
:1096F0000790A6E70321E0E70AB0BDE8F087000085
:10970000006000406829002070B54FF48076304634
:1097100003F06EF8114CB50560B1304603F06FF8F8
:109720000120C5F80803607920B901206071216823
:10973000002088474FF48276304603F059F800281D
:109740000AD0304603F05BF80220C5F80803216810
:10975000BDE870400120084770BD000028230020AC
:1097600002490248091F096800680847942300203D
:1097700000F0B6B970B50E46144900EB400001EB9D
:10978000C0051446E86A183520B101280FD0022818
:1097900005D113E0284600F0D7F9A04201D20024F9
:1097A00011E022463146284600F006FA0BE0284632
:1097B00000F0CAF9A042F4D20446F2E73146284646
:1097C00000F0CDF90446204670BD0000A430002012
:1097D00003F090BF2DE9F047AC4F4FF001093E1D5B
:1097E0003978351D4FF0805406290BD130780007A9
:1097F00008D12878C0F30310032806D0042804D029
:10980000052802D0062907D011E0B4F82403A049A6
:10981000C0F30420086002E03078000707D1287800
:10982000C0F30310032802D19B499A48486702F00D
:109830000BF928B1D4F844029849C0F342300860CB
:109840003878B84606280CD13078000709D1287836
:10985000C0F30310032804D19148016821F08071FE
:10986000016002F017F9002740B14FF08040C0F8C6
:109870000C71C0F810718948001F076098F800004B
:10988000062807D13178090704D12978C1F30311DB
:10989000032902D0062805D019E0804A032164324A
:1098A000116007E03178090711D12978C1F303115C
:1098B00003290CD17B4B05221A607A4A7832C2F810
:1098C0000090784908310F603F211A1D1160D4F8CB
:1098D00030210A2A04D1D4F8341159B1012909D010
:1098E000062807D13178090704D12978C1F303117B
:1098F000052955D16C4909686C4B19606A49091DE5
:1099000009681B1D19606849083109681B1D196029
:1099100065490C3109681B1D1960634910310968DC
:109920001B1D19606049143109681B1D19605E49CF
:10993000183109685D4B203319605B491C31096897
:109940001B1D19605849203109681B1D19605649B3
:10995000243109681B1D19605349283109681B1DF2
:10996000196051492C3109681B1D19604E4930316D
:1099700009684E4B403319604B49343109681B1D4F
:1099800019604949383109681B1D196046493C3145
:1099900009681B1D19604449403109681B1D196085
:1099A0000A2A05D1D4F8341111B9414AFB211160BA
:1099B000DFF80081062811D1307800070ED1287811
:1099C000C0F30310032803D0042801D0052805D1D3
:1099D000D4F8580200F04F01C8F8001002F00EF859
:1099E00030B135480168C90702D06FF0010101604C
:1099F000D4F83001062803D1D4F83411062902D056
:109A00000A2806D008E02D48016841F48061016011
:109A100002E0D4F8340128B1D8F8001041F00F0169
:109A2000C8F800104FF01021D1F80002002803DB25
:109A3000D1F80402002823DA214AC2F80090214814
:109A40000368002BFCD01523C1F800320468002CF9
:109A5000FCD0C1F8043201680029FCD0176001680D
:109A60000029FCD0BFF34F8F0D48F0380168164A2B
:109A700001F4E06111430160BFF34F8F00BFFDE7C8
:109A8000134912480860BDE8F0870000E00F00F0BD
:109A9000403501400DF0ADBA00C007403C05004024
:109AA000FCED00E0105600400404001020C500400A
:109AB00018F50040E40E0040000400403C17004050
:109AC00004E5014000E401400400FA050090D003E1
:109AD00008240020014800680047000030230020CF
:109AE00010B5124C02202061606111A0A06104F148
:109AF0007800E0614FF4007020620020A062606294
:109B00000BA1A164E06204F51E71E1641021A0655F
:109B1000C4E91410E06509A1E01DFFF7ECFC08A101
:109B20002046FFF7E8FC2020A07110BDA4300020E3
:109B30005465726D696E616C0000000052545400EF
:109B400053454747455200000269C1688A4203D81D
:109B50008068401A104400E0501A401E70472DE9FA
:109B6000F047C4681746894606464FF0000830693A
:109B7000A04201D9051B02E0B168201A0D1AB06895
:109B80006D1E001BA84200D80546BD4200D33D46CD
:109B900070682A4620444946FFF782FCB0687F1B64
:109BA0002C44A844A944A04200D10024F460002F12
:109BB000DDD14046BDE8F0872DE9F04104468846F6
:109BC000D4E90207C51BE168606816460844B5423F
:109BD00006D94146FFF764FCB819E060BDE8F081A2
:109BE0002A464146FFF75CFC761B08EB050132462E
:109BF0006068FFF755FCE660F0E70000014A0249A3
:109C000000F026B841BC0100A423002002E008C8EF
:109C1000121F08C1002AFAD170477047002001E0E6
:109C200001C1121F002AFBD170470000012120282A
:109C300003DA81400548014003E0402802DA203879
:109C4000814009B10120704700207047FC06FFBD2C
:109C50002DE9F04116460F460446002503E039463B
:109C6000B047641C6D1C20780028F8D12846BDE858
:109C7000F08190F824001F20704710B501220221C6
:109C8000002001F0BDF908B1072810D107220221F8
:109C9000012001F0B5F908B1072808D100210A22F6
:109CA000084601F0ADF908B1072800D1002010BD29
:109CB000022001F0AFB8000070B50024064D06E0A8
:109CC0006868012110F8340003F01AFE641C28783B
:109CD0008442F5D3002070BD38230020F8B5164625
:109CE0000C4605460A2A01D20720F8BD03F002FF00
:109CF00018B903F0C9FE0028F7D1134F10211348FB
:109D00007D603C70BE60FFF7E4FB0020C7E9040003
:109D10000F4E0DE005EBC4003168009181788DF89D
:109D2000011000780B4A694603F03CFE0028DCD1A4
:109D3000641EE4B2EED2BDE8F84005480021064AB0
:109D4000001D00F087B8000038230020382A0020CA
:109D50006CF1010011BD010039B7010010B572B6F8
:109D600003F014FA03F058F80028FBD11148124907
:109D7000401AC408012000EB044010A103F064F96C
:109D800011480068C00700D000BE022000EB04406C
:109D90000EA103F059F9BFF34F8F0B48E438016867
:109DA0000E4A01F4E06111430160BFF34F8F00BF21
:109DB000FDE70000DCFB01007CFB010046617461F3
:109DC0006C206572726F7200F0ED00E0537973746D
:109DD000656D207265736574000000000400FA056B
:109DE0000EB500210091CDE901106A4644F2010050
:109DF000FFF7B4FF0EBD10B58268C368934203D06D
:109E000001F0F2FE002010BD052010BD29B112B1F5
:109E1000531E134203D0092070470E207047016083
:109E2000838000218160C1600846704710B5826858
:109E3000C3689A1A83889A4203D801F0DFFE002093
:109E400010BD042010BD0000014801F0DCBC000082
:109E5000582300203AB100680129426100D0002156
:109E600001610020704707207047000038B5114895
:109E700008235822416800910F49006802F0BDFA9A
:109E8000002815D10D4A69460D4801F0C1FC0400B7
:109E90000ED101210A4801F032FD0123094A194679
:109EA000074801F088FC064901200839087020465F
:109EB00038BD000074F10100582A002065E401005B
:109EC00058230020FFFF7F0070B50446007F0D4639
:109ED00008B1002070BDA26101F000FF401941F1FE
:109EE0000001C4E90201206900B125612146BDE8F5
:109EF0007040002004F08ABD014600200877012050
:109F000004F084BD70B50A4E01460A48B578FFF7E3
:109F100072FF04464DB10020B070711C0122C81DB3
:109F200002F0DEFC08B1FFF75BFF204670BD0000C9
:109F300074230020B02A0020F0B5244E89B01F46BB
:109F40000D00044672603FD0A888296882B220487C
:109F5000FFF75CFF002835D1A889A96882B21C48A8
:109F60001030FFF753FF00282CD1202219496846F2
:109F7000FFF796FA60690690207C00B101208DF809
:109F800014008DF81C70607C00B10E208DF8150057
:109F9000E0680290A06803902068019060680090DB
:109FA0000A480D4A6946083002F066FC002809D1CB
:109FB000B0702068401C05D004490122491CC81D0E
:109FC00002F08EFC09B0F0BD0720FBE774230020EF
:109FD000B02A002088F1010029EB010010B50146EC
:109FE0001048FFF723FF040019D10F480F4A0178EA
:109FF000515C19B1001D04F00DF802E00C3003F0C3
:10A00000E3FE60B9084907480839FFF7F4FE30B9A4
:10A01000054901220839044802F072FC0446204632
:10A0200010BD0000C02A00207C2300201C2300203B
:10A0300030B5EFF3108172B60D4A9468012324B154
:10A040000370002900D162B630BD93604FF0E02369
:10A05000D3F88051074C25401560C3F88041D3F8F0
:10A06000844154605A17C3F8842100220270E8E743
:10A07000D02A0020FC06FFBD0B498A68002A11D0B7
:10A0800000280FD1EFF3108072B60B684FF0E0227A
:10A09000C2F800314B68C2F8043100228A600028FF
:10A0A00000D162B670470000D02A00202DE9F041AF
:10A0B000064608680C46411C4FF0A0474FF00105CA
:10A0C00006D005FA00F1C7F80815206802F088FDEF
:10A0D0006068411C02D0002102F070FD3168A06967
:10A0E000C1F82405607D227D31681043C1F86C05FC
:10A0F000D4E900123068C0F81425C0F80C15207D92
:10A10000012815D1A068411C02D0002102F056FDA3
:10A11000E068411C05D08540C7F80855E06802F0AA
:10A120005FFDD4E902123068C0F80825C0F81015A8
:10A13000BDE8F0812DE9F041064608680C46411C57
:10A140004FF0A0474FF0010506D005FA00F1C7F81F
:10A150000815206802F04EFD6068411C02D0002105
:10A1600002F035FD3168A069C1F82405607D217DCC
:10A1700032680843C2F86C05D4E900123068C0F8B0
:10A180000C15C0F81425207D012815D1A068411CAC
:10A1900002D0002102F01BFDE068411C05D0854083
:10A1A000C7F80855E06802F025FDD4E902123068CE
:10A1B000C0F80825C0F81015BDE8F08170B515008D
:10A1C000044609D00020286034B1206820B1A0796D
:10A1D000800703D0072070BD0E2070BD084600F038
:10A1E00009FBC0B2142804D02179814203D804208D
:10A1F00070BD052070BDE288216800FB0210286058
:10A20000002070BD2DE9FC47002517880646158003
:10A2100090F82D001446894630B13A46214648460A
:10A2200000F0FCFA051E09D1B0784FF00C0A18B303
:10A230002088C846001DB84202D95046BDE8FC87B8
:10A24000684679DF0028F9D12088032108F800103A
:10A2500020881921401C80B2208008F80010208836
:10A26000401C80B2208000EB0801BDF8000004F023
:10A27000FCFD218808442080F0780222C8B12188A2
:10A2800096F9033001F1030C4846BC45D5D8425439
:10A2900021884FF0010C491C89B2218000F801C0CF
:10A2A0002188491C89B2218009F801302088401C8E
:10A2B00020807068B8B1218890F9003001F1030C5A
:10A2C0004846BC45B9D8425421880A22491C89B263
:10A2D000218042542188491C89B2218009F801302B
:10A2E0002088401C2080308950B1CDE900474B4682
:10A2F0000622022106F1080004F078FE051E9DD119
:10A30000308A50B1CDE900474B460722032106F1C0
:10A31000100004F06BFE051E90D1308B50B1CDE9DA
:10A3200000474B461522142106F1180004F05EFE8A
:10A33000051E83D1306A30B13B462246494601F0C2
:10A3400090F9051EDBD1706A30B13B462246494682
:10A3500001F076FF051ED2D196F82C0038B13B46AD
:10A3600022464946304604F0DDF9051EC7D1307853
:10A3700038B13B4622464946304601F0EBFF051E08
:10A38000BDD128465AE718B504460020ADF80000B4
:10A3900013466A46204600F006F8002802D0BDF8B1
:10A3A0000000204418BD70B5C8B1C2B100241588A2
:10A3B00003E0065D641C3444A4B2A54203D8061928
:10A3C00076789E4201D08C42F3D38C4207D2005D56
:10A3D000A31C401E9BB280B21C188C4201D90020E5
:10A3E00070BD138070BD80F8301070472DE9F041CA
:10A3F0000D00044606D02CB195F87A0000260128FD
:10A4000003D006E00E20BDE8F08195F89800012801
:10A4100029D0D5F8A000042825D0D5F89C00042820
:10A4200021D04FF00108A6702C2205F17801201DE3
:10A43000FFF736F884F83060D5F8A4006063D5F8EB
:10A44000A800A0634FF6FF70A4F8E80004F1D40060
:10A45000C4F8E400C4F8EA60A4F8EE6084F8F060A0
:10A46000207810B104E00720CDE7FF2084F85400E5
:10A4700004F155072046C4F8D470FFF7FAFBA4F89E
:10A48000D80004F1D80239462846FFF7BBFE002861
:10A49000B9D104F19300C4F8DC002046FFF7E9FBD2
:10A4A000A4F8E00004F1E00205F13C00D4F8DC106F
:10A4B000FFF7A8FE0028A6D184F85180208BA4F8CD
:10A4C000480084F83C80266484F85060606900216C
:10A4D0006064454604F13C02781E72DF002892D188
:10A4E000257090E710B50288102A1BD0112A20D0C1
:10A4F000262A1DD1007A0C46012801D0022817D146
:10A50000A0780521401CB0FBF1F201FB12012046AE
:10A5100000F03AF800280BD0A16B002908D0BDE864
:10A5200010400847C27B012A02D18088A1F8E800C8
:10A5300010BD0C46002184F8F2108088B4F8E810B1
:10A540008842F5D120790028F2D10121DFE710B54A
:10A55000044690F8540074DF012084F8F2000020D3
:10A5600084F8F40084F850000621204601F054FBE2
:10A57000002808D1A178204600F006F810B1A16BA0
:10A5800001B18847002010BD2DE9F05F0446007836
:10A590000F4698B1A7700025C4F8EA50A4F8EE5011
:10A5A00084F8F050A079012608B1012F09D0E07994
:10A5B00080B1012F05D0022F03D00BE00820BDE8A9
:10A5C000F09F616B21B184F8F1600820884701E0B9
:10A5D00084F8F15004F1EB0100200A5C0AB1304626
:10A5E00003E0401C0628F8D300204FF002084FF08B
:10A5F000030A4FF0040B012F06D0022F0CD0032FBB
:10A600000FD0042F15D110E0A17929B194F82410AE
:10A6100011B908B130460DE0E17911B108B14046F9
:10A6200008E0207A08B1504604E0607A08B1584644
:10A6300000E02846A070616B41B1032801D00428D6
:10A6400004D1607910B194F8F20098B184F8F35015
:10A6500004F13C0018210746FEF73BFF84F83C60FC
:10A6600004F12C0003F066FE58B194F82C0084F835
:10A67000510008E084F8F45084F8F360072088471C
:10A68000E6E784F8516094F8240058B104F12800FA
:10A6900003F050FE20B194F8280084F8520001E045
:10A6A00084F8526084F85050A27804F1EA0104F171
:10A6B000D409052A4DD2DFE802F065030F1B3200F2
:10A6C00084F83160C4F8E450C4E9101584F83C8083
:10A6D0008020A4F848003EE084F8318087F800A08C
:10A6E000228ABA81C4F8E4507960E168B96032E046
:10A6F0006069B860208BB8813D4684F83C60204694
:10A7000004F046FC40B185F814800421204601F095
:10A7100083FAF0B9052115E084F831A017E0E0696B
:10A72000B860208CB8813D4684F83C60204604F037
:10A730002FFC50B185F814800421204601F06CFAFA
:10A7400038B9062184F8311001E084F831B0C4F83A
:10A75000E490A07878B13A4604F15400D4F8E410BB
:10A7600072DF00287FF42BAF94F8301094F8540077
:10A7700073DF0028F6D1616B11B194F8310088477E
:10A7800000201CE784F83150F5E7000070B50400A4
:10A7900012D001461C221448FEF782FE1248134DC7
:10A7A0000560206850B17ADF002806D12068016872
:10A7B00029604068686005E00E2070BD0B487BDFB3
:10A7C0000028FAD108484FF6FF711438084A20F8DB
:10A7D000041B0549343901600021FFF73BFB0028C9
:10A7E000EBD0032070BD0000BC2800201423002003
:10A7F00029EF010010B5044600F006F808B1204624
:10A8000010BD142010BD0000142801D30020704793
:10A810000146014801F03BBEDC2800207CB505461E
:10A8200008880C460930904201D90C207CBD68464E
:10A830006DDF0028FAD121880820685420881B2168
:10A84000401C80B2208029542088401C80B2208087
:10A850002844DDF801100160BDF8051081802088D2
:10A86000801D80B220809DF80010490800D0012191
:10A8700029542088401C208000207CBDF8B52B4D39
:10A88000018804466E8821293BD015DC2848294AD6
:10A890001029A0EB02004FEAD0004FF0030202EBB8
:10A8A000004013D0112925D0132929D100231A469D
:10A8B000852130467FDF17E03B2932D052292AD04C
:10A8C00056291DD18088132176DF0DE01AA102F0F0
:10A8D000BBFB072000F0B6FB08B1FFF781FAA188A7
:10A8E0006980184801F00CFF002809D0BDE8F84045
:10A8F000FFF776BA14A102F0A7FB4FF6FF7068804D
:10A90000F8BD00200090A08869468FDF0028F7D0AE
:10A91000FFF766FAF8BD00231A4619463046B1DF44
:10A92000E2E78088132176DFDEE70000D0220020F6
:10A93000DCFB01007CFB0100436F6E6E6563746598
:10A940006400000010270020446973636F6E6E6519
:10A95000637465640000000010B51A4C01886068DB
:10A9600010290ED011292BD1401E606028D1FFF78D
:10A9700084F9002824D02168002921D0BDE81040A6
:10A980000847D0B900210122084600F039FB08B180
:10A9900007280FD107220221012000F031FB08B166
:10A9A000072807D104220221002000F029FB20B152
:10A9B000072802D0216801B188476068401C6060A8
:10A9C00010BD00000C2300202DE9F04701883B4E0C
:10A9D00040F2F3194FF6FF7510291BD011293ED014
:10A9E000122954D0502946D1C188F289841D914240
:10A9F00041D1618902293ED18688304601F0A6F90D
:10AA0000050038D004F10C0000F0BFF9A8B32946C6
:10AA100030464EE0C17B8788044601292BD1A846E9
:10AA2000284601F093F9050017D02F8000202872E6
:10AA3000234843464A460168C5F80A104068C5F8ED
:10AA40000E0004F1100105F10A0001F039FA6872F4
:10AA5000F08900280FD129462AE0042013E08088DD
:10AA600001F074F9040006D06068FFF745FA08B1F8
:10AA700003F028FE2580BDE8F087FFE76868FFF750
:10AA80003BFA0028F7D0BDE8F04703F01BBE8788EB
:10AA90000646384601F05AF90400ECD02B464A46E7
:10AAA00006F1080104F10A0001F00AFA6072214679
:10AAB0003846BDE8F04700F01BBE0000BC2800206F
:10AAC000142300202DE9F04F04468688018842486F
:10AAD00097B0834610290CD0112950D01030192975
:10AAE0006AD01A2974D1217A0C09042C4DD3012281
:10AAF0004CE0394D083DA868C0430B9069680BA82D
:10AB000001F0E6FC0B990CA800F08CFD2C220CA99E
:10AB10006846FEF7C5FC0027E946A84610E000BFDE
:10AB200009EB47005FF00005B0F804A008EB8500D2
:10AB30005146001D01F0A0FC6D1C1E2DF6D37F1C9C
:10AB40000098B842ECD8142E05D317B00420BDE805
:10AB5000F04FFFF745B93146584601F0A3FC3146A6
:10AB600008F1040001F09EFCE07B012830D017B012
:10AB70003146BDE8F04F1848001D01F093BC17B0F6
:10AB80003146BDE8F04F01F077BC0022314601F0BC
:10AB90003EF8032C01D3012200E000220E4831468A
:10ABA0000C3001F034F8022C01D3012200E0002225
:10ABB00009483146083006E0217A002908D1617A37
:10ABC000C1F3C002314617B0BDE8F04F01F01FB825
:10ABD00017B0BDE8F08F0000E0280020F0B585B088
:10ABE00016460F4604001D4614D004AA1946606993
:10ABF000FFF7E4FA00280BD1A5F57F40FF380BD012
:10AC0000049848B1007848B13088F42808D9072062
:10AC100005B0F0BD0E20FBE70520F9E70820F7E7B7
:10AC200000200090019002900390A088ADF80000F1
:10AC300001208DF80200CDE9026769462846AEDFA3
:10AC4000E6E7000070B5334D04008EB02DCD08AEA0
:10AC500086E82D005BD0E9B30868A061214608A80A
:10AC600062DF002851D1207801258DF83200ADF83F
:10AC70003050A21C0CA92846A8DF002845D120216D
:10AC80006846FEF726FC0220ADF8000020788DF81B
:10AC900002008DF80C509DF80D00F426ADF804600C
:10ACA00040F00C008DF81150ADF806508DF80D00F5
:10ACB0008DF81250608804F10C02694600F0BCFB6C
:10ACC000002822D120216846FEF703FC0320ADF8BE
:10ACD000000000E01BE020788DF802008DF80C5099
:10ACE0009DF80D008DF81150ADF8046040F0100093
:10ACF0008DF81250ADF806508DF80D008DF81350F8
:10AD00006088221D694600F097FB0EB070BD0E20D2
:10AD1000FBE7000050F1010030B587B00446002980
:10AD200025D0002C23D008462188102921D0502975
:10AD300025D057291BD10546A18840696A46FFF7EF
:10AD40003DFA002813D10098007800280FD0182170
:10AD500001A8FEF7BEFB01208DF804000295A08833
:10AD6000ADF80C0000980490A96901A8884707B0C5
:10AD700030BD07B02146BDE8304003F0C5B907B08B
:10AD80002146BDE8304003F093BA007800F001009E
:10AD9000704700000149085C7047000010F1010095
:10ADA0000649095C4FF0A040D0F81005C84010F0EB
:10ADB000010000D0012080F00100704710F1010077
:10ADC0002DE9FC410646C0074FF000050ED0104F9C
:10ADD00000240122385D009500231146019501F001
:10ADE000A5FE641C042CF4D300F046F8B0070DD582
:10ADF000074E0024361D0022305D032300951146C6
:10AE0000019501F093FE641C042CF4D3BDE8FC8191
:10AE10000CF1010007490B5C4FF0A041D1F804256B
:10AE20000120984020EA0203C1F808351040C1F81B
:10AE30000C0570470CF101000249085C012101F08A
:10AE4000F4BE00000CF101000249085C002101F091
:10AE5000ECBE00000CF101000649095C4FF0A04077
:10AE6000D0F80405C84010F0010000D0012080F0A7
:10AE7000010070470CF1010010B500242046FFF7D7
:10AE8000DBFF641C042CF9D310BD10B50024204650
:10AE9000FFF7DAFF641C042CF9D310BD10B502468D
:10AEA000064B4FF0FF3000215C5C944201D1084614
:10AEB00010BD491C0429F7D310BD000010F101009A
:10AEC00070B50C4E0C004FF0000530600BD0012027
:10AED00000F06AF808B1022004E0002000F064F8F5
:10AEE00000B10B202070706810B9FEF7C6FE054651
:10AEF000284670BD0C23002010B5002000F0DCF9BE
:10AF000008B1062806D1012000F0D6F908B10628BC
:10AF100000D1002010BD00002DE9F0470D4681460C
:10AF2000FFF7BCFF0446042836D2DFF874801B48C4
:10AF30001C4EA8F10C0725B3012D0ED0022D2BD1EC
:10AF400004EB440030444578002D25D0B968002931
:10AF500022D02846BDE8F047084704EB4401755C61
:10AF60000E44717849B10E4A4FF48041093A806825
:10AF7000FEF7AAFF08B987F80390B17808F8041023
:10AF8000E2E78068FEF7B8FF04EB4401314418F8AB
:10AF900004008D78A842D7D0BDE8F08714F10100F5
:10AFA0000823002058280020042801D2FFF7F8BE0B
:10AFB000002070470146104810B54088042907D08A
:10AFC00007290ED00A2915D1BDE8104003F006BCB0
:10AFD000132176DF0CE000280CD0BDE81040FEF70E
:10AFE000FFBEA0F57F41FF3904D10448FFF7AFFA57
:10AFF0000828F0D110BD0000D02200201C2700201E
:10B0000070B50023042810D20D4D00EB4004012A36
:10B0100002D101290CD00022094E00EB400030443F
:10B0200061B1012906D0022906D00723184670BD58
:10B030000E30C2B22A55F9E74270F7E78270F5E7A1
:10B0400058280020044A014600201279D20702D075
:10B05000084600F04DB87047FC22002070B5064647
:10B060001E480024C0E90161B00720D50025012257
:10B0700011462846FFF7C4FF6D1C0446042D02D27A
:10B08000002CF4D013E094B940F233320421144878
:10B09000FEF724FE04000AD1FEF70EFE040006D1DE
:10B0A0000F48104A0021001FFEF7D4FE0446F007A7
:10B0B00012D00120FFF784FE74B909480A4A002122
:10B0C0000C38FEF7C7FE040006D10548074A0121E7
:10B0D0000838FEF7BFFE0446204670BDFC22002063
:10B0E00020F10100BDB3010035BF0100B19C01009A
:10B0F0002DE9F05F6E4C054600266078B34618B126
:10B1000084F801B000F0FEFE6A4F4FF47A694FF404
:10B11000C87A4FF00108182D69D2DFE805F00C134A
:10B1200013384754696E727B727BC584848484842F
:10B13000B3B6B9BCC5C500F0E5FE3868FEF7DCFE65
:10B1400006465CE00020FFF787FE00284FF0000075
:10B1500008D0FFF771FE022D02D14FF4E16008E044
:10B16000484606E0FFF770FE022D01D1C82000E03E
:10B170005046410CC0034FF47A72801841F100012F
:10B18000257052000023FEF747F901462AE000200F
:10B19000FFF762FE00284FF0000004D0FFF74CFEDE
:10B1A0004FF44870E5E7FFF74FFEDFE70020FFF7B9
:10B1B00053FE00284FF0000002D0FFF73DFECFE71E
:10B1C000FFF742FED4E70020FFF746FE00284FF0CD
:10B1D000000002D0FFF730FE01E0FFF735FE2570DA
:10B1E00040F6CD4100223868FEF76EFE064646E086
:10B1F0000020FFF70FFE257008E0002051E02570C9
:10B200003DE084F801800120FFF704FE002240F2B7
:10B210006661E8E784F801800120FFF7FBFD00226A
:10B220004FF40051DFE77868FEF766FE0646D5F179
:10B23000110000D02EB10220FFF7FEFD84F802B00D
:10B240001DE0012816D980B2C8214843C117C9039F
:10B2500041EA5041C0034FF47A72801841F1000175
:10B2600052000023FEF7D8F8014600227868FEF766
:10B270002BFE06460220FFF7E7FD84F802803046E9
:10B28000BDE8F09F00F03EFEB9E700F03BFEB4E7FA
:10B2900000F038FE04E000F035FE0020FFF7D4FD9A
:10B2A0000120FFF7D1FDAAE7FFF7EFFDA7E70000B8
:10B2B000FC22002014F10100012103F0FEBE000079
:10B2C0002DE9F8430546861C00208DF800009046C5
:10B2D0000F464FF001096846FEF7AAFE1B4C206896
:10B2E0003860D4E90001401AA16804F21C47081A2A
:10B2F0000EE00121384601F0E5F800F02DFE014690
:10B30000384601F0DFF8D4E90001401AA168081AB4
:10B31000401C8642EDD8B8F1000F03D0052065F33C
:10B32000891002E0062065F39F50A2682168114051
:10B3300004EB8101C8602068304420609DF8000063
:10B34000FEF79AFE4846BDE8F8830000802C0020F6
:10B3500070B50D4604460A2902D10D21FFF7F8FF0A
:10B36000A0682268411CA1601554D4E90101814202
:10B3700004D32046BDE8704001F0DFBA70BD000084
:10B38000034803C8814201D1012070470020704763
:10B39000802C0020034630B507480021047842681D
:10B3A00006E000BF02EBC10005789D4203D0491CB6
:10B3B000A142F7DB002030BD3823002000780221B5
:10B3C000FFF7AABD05494FF0FF32082841F82020B9
:10B3D00002D3084480F84820704700006829002004
:10B3E000F0B54FF0FF3512B10023082601E0082325
:10B3F0000C260C4C05E000BF54F823707F1C04D0D1
:10B400005B1CB342F8D32846F0BD26185DB286F81F
:10B41000305044F82310002AF5D1E11881F8480093
:10B42000F1E70000682900200249084490F9300043
:10B4300070470000682900202DE9F0438146887894
:10B4400091B090460C4600B901208DF83E0020884E
:10B45000ADF83C0000250095607C694603F0A6F934
:10B460006E46A07C711C03F0A1F9E07B00289DF8DA
:10B47000020002D040F0080001E020F008008DF842
:10B480000200217C11B140F0100001E020F010001A
:10B490008DF80200217B11B140F0010001E020F0A5
:10B4A00001008DF80200217D09B1022100E0012197
:10B4B00061F342008DF802001C2102A8FEF709F892
:10B4C000607BC10601D4800617D50E950EAFE07CD7
:10B4D000791C03F06BF99DF83800079720F00F00F6
:10B4E000401C20F0F00010308DF838009DF83A0034
:10B4F00020F00600801C8DF83A00607B8DF8080073
:10B50000A07B8DF80900142109A8FDF7E2FF0FA820
:10B51000CDE90906A088ADF83000A06820B1E08828
:10B52000ADF82C00A0680D90A06998B30195008833
:10B53000ADF81000A06901AD01A94088ADF8120076
:10B54000A069406806950390A069007B03F02EF97E
:10B55000A069691C407B03F029F9A069807A002862
:10B560009DF8060002D040F0080001E020F008003D
:10B570008DF80600A169C97A11B140F0100001E010
:10B5800020F010008DF80600A169097A19B140F089
:10B59000010002E00DE020F001008DF80600A16935
:10B5A000897B09B1022100E0012161F342008DF89D
:10B5B0000600E06900B10590434609AA02A9484681
:10B5C000AADF11B0BDE8F08370B5084C050009D0C2
:10B5D00010342168002907D008682060496828468F
:10B5E0008847F6E70834F4E770BD000054290020CE
:10B5F000054A012120B1012805D19170FFF7E4BF70
:10B6000051700020FAE770475429002010B5D0E9A6
:10B610000234D1E90220D11AA04101D3012010BD8A
:10B62000002010BD73B58CB00646002000900D9828
:10B6300080B100246D4621460DA800F028FF30B1EE
:10B64000009805EB400084800098401C0090641C2A
:10B65000142CF0D32C2269463046FDF721FF0EB0A2
:10B6600070BD2DE9F04117880646B81D14460D46F9
:10B67000984202D90C20BDE8F081318807220629C2
:10B680000AD34FF4486C4FF6FF73614501D99942D4
:10B6900002D17088062801D21046ECE7604501D936
:10B6A0009842F9D1994203D0984201D08142F3D80F
:10B6B0000520E85520881221401C80B220802954A2
:10B6C0002088401C80B220804119308803F0CDFBD7
:10B6D0002188084480B220804119708803F0C5FB9E
:10B6E0002188084420800020C5E7FEF779BB0000D0
:10B6F00038B54A7A0F4B62B100220A7259690029A3
:10B7000006D001228DF80020ADF802006846884777
:10B7100038BD0A7A62B19B684C68024619462046D9
:10B72000FEF7D2FB0028F3D0BDE8384002F0CABFD4
:10B730005B68F1E7BC28002070B500240F4D10E0D5
:10B74000686800EBC406307802F094F9717801293A
:10B7500001D0012100E000214140307800F0CAF919
:10B76000641C28788442EBDBD5E90401084303D04C
:10B77000BDE8704003F066B970BD000038230020BA
:10B7800010B50021024800F0AEFE80F3100010BD9D
:10B790009C3000204FF480328A400168C1F8482371
:10B7A0000068C0F8082370474FF4A07202EB8101D3
:10B7B00089B200F00FBA2DE9F04105460E464FF46C
:10B7C000A07000EB860081B228684FF48034B4404A
:10B7D000984622F07F47C0F808432868C0F84843DD
:10B7E000286801F0E1FD286800EB8600C0F840758C
:10B7F0002868C0F84443B8F1000F02D02868C0F8A8
:10B800000443BDE8F0810068D0F8040570470000EB
:10B8100070B54379224C44F823204279241D04EB6F
:10B82000C202204B1579204A9A1AD3082DB1082458
:10B83000022000EB03401DA12EE002680D88C2F833
:10B84000085590F904208978002A4FEA411106DA58
:10B8500002F00F0202F1E02282F8141D03E002F16F
:10B86000E02282F8001490F90410012201F01F0573
:10B8700002FA05F54909890001F1E021C1F80051FA
:10B88000417904EBC1010A71417944F83100032088
:10B89000002400EB03400EA101F0D6FB204670BD52
:10B8A00090230020C4FB01007CFB01005254432084
:10B8B000696E7374616E636520616C726561647931
:10B8C00020696E697469616C697A65642E00000094
:10B8D0005254433A20696E697469616C697A65648F
:10B8E0002E00000090F90400012100F01F02914099
:10B8F0004009800000F1E020C0F8001270470A46BD
:10B90000022100F0EDB84FF4827100F063B90068D5
:10B9100001210160704700680121416070472DE9F5
:10B92000F05F07460C464FF4A07000EB84001FFA4E
:10B9300080FA38684FF48036A6409B4622F07F4557
:10B94000C0F848633868C0F808633868D0F80485E0
:10B9500000EB8402D2F84095C2F840855146386821
:10B9600001F022FDA9EB080020F07F40012806D15C
:10B97000102001F0BDFF5146386801F015FD386810
:10B98000D0F80485C0F84463A5EB080121F07F419D
:10B990003868012900EB840010D0C0F840553868A1
:10B9A000D0F804156FF07F4C6A1A521E22F07F42C5
:10B9B000ACEB0B03934217D362B118E06D1CC0F8D7
:10B9C0004055102001F094FF3868D0F80405404538
:10B9D0000AD10CE000EB84006D1CC0F840553868BB
:10B9E000D0F80405884202D00D20BDE8F09F012266
:10B9F0003146384600F074F80020F6E74FF08050EA
:10BA0000D0F830110A2904D1D0F83401B8B1012896
:10BA100014D00C480078062811D10A48001D00787F
:10BA200000070CD1074808300078C0F30310032842
:10BA300005D0042803D0052801D00020704701203C
:10BA400070470000E00F00F04FF08050D0F8301148
:10BA50000A2904D1D0F83401B8B1012814D00C4817
:10BA60000078062811D10A48001D007800070CD183
:10BA7000074808300078C0F30310032805D00428D5
:10BA800003D0052801D00020704701207047000036
:10BA9000E00F00F04FF08050D0F830110A2904D1A7
:10BAA000D0F83401B8B1012814D00C480078062829
:10BAB00011D10A48001D007800070CD10748083052
:10BAC0000078C0F30310032805D0042803D005280C
:10BAD00001D000207047012070470000E00F00F007
:10BAE0000368C3F84413002A02D00068C0F80413A6
:10BAF000704700002DE9F84F0E463449804601EBAF
:10BB00005001C007097801D00F0901E001F00F07CB
:10BB10004FF00009424601204946FDF7AEFCDFF830
:10BB2000B0A004460D46052F4ED2DFE807F00316FD
:10BB30001B282C00002E47D00121404602F0A0FE19
:10BB40008DF800906846FEF773FA5046D0E904126B
:10BB50000C431543CAE9044532E00EB1022114E05A
:10BB6000002112E04EB10321404602F089FE40461A
:10BB7000BDE8F84F012103F029BA012105E0002EAC
:10BB800022D1042101E02EB103214046BDE8F84F47
:10BB900002F076BE0021404602F072FE00214046CF
:10BBA00003F014FA8DF800906846FEF741FA50460B
:10BBB000E243D0E904341A4024EA0501CAE9042129
:10BBC0009DF80000FEF758FABDE8F88F382A0020EB
:10BBD0003823002010B5006842581AB101F0E4FB88
:10BBE000012010BD002010BD826883881A400368C0
:10BBF0009A5C0A708168491C81607047C2688388BA
:10BC00001A4003689954C168491CC16070470AB161
:10BC100000F048BC00F030BC70B50D460446B0F8EA
:10BC2000D810D0F8D4000122FEF7ADFB00B10570AA
:10BC300004F13C0204F1D40104F1540072DF70BD40
:10BC400010B50446C0B2FEF7C9F9204610BD000089
:10BC50000C484A8843889A4213D10A88A2F5206387
:10BC6000773B0ED18988C91E8AB28280064807496F
:10BC70001346401AC008032101EB004004A101F063
:10BC8000EEB97047D0220020DCFB01007CFB0100F4
:10BC900044617461206C656E206973207365742043
:10BCA000746F2030782558282564290010B509497B
:10BCB000094800F099FC08B1FEF792F8F721064810
:10BCC00000F086FC002803D0BDE81040FEF788B8DD
:10BCD00010BD000051BC01000027002010B50B482A
:10BCE000FFF791FD094A083AD2E90434C018D2E9B5
:10BCF000063244F10001C31A71EB020204D24FF084
:10BD00008072801841F1000110BD0000582300200E
:10BD100010B5C0B2FFF73EFB0446007801F0AAFE62
:10BD200001466078012801D0012000E0002090EA5F
:10BD3000010F08D00449D1E90401084303D1BDE84B
:10BD4000104002F07FBE10BD38230020014603489A
:10BD500002888A4200D0002070470000A8280020F6
:10BD60002DE9FC5F0E008346DDE90C47C6F10000BB
:10BD700098469246814600D40846012503E000BF5C
:10BD800090FBFAF06D1C5045FADAA84500D94546FB
:10BD900024B1002E01DB780700D5641EB80702D558
:10BDA000B8F1000F0AD0F80708D13CB1A54205D27E
:10BDB00020215846641EFFF7CBFAF6E7002E02DA80
:10BDC0004E462D2102E0780703D52B215846FFF778
:10BDD000BFFA07F0030002280BD1B8F1000F08D119
:10BDE0003CB1A54205D230215846641EFFF7B0FA97
:10BDF000F6E7CDE90047434652463146584603F040
:10BE000039F8BDE8FC9F000070B50D460446006897
:10BE10004FF4887101F032FD4FF49071206801F009
:10BE20002DFD4FF49271206801F028FD4FF4A271AE
:10BE3000206801F023FD4FF4AC71206801F01EFD75
:10BE400020681149C0F804132068690740F30730DF
:10BE5000090E002806DA00F00F0000F1E02080F85B
:10BE6000141D03E000F1E02080F800142068012197
:10BE700040F3073000F01F0291404009800000F1BC
:10BE8000E020C0F8001170BD1003420002460020FF
:10BE90001268530713D502F00300012802D00228CC
:10BEA0000CD105E0C2F383100B68801C184404E039
:10BEB0000223086803EB9252104408600120704787
:10BEC000F0B58488A518944200D82246A41AC288E6
:10BED000D6189A4200D81346D21A4B880788BB421C
:10BEE0000CD34088834209D88888A04206D3A84250
:10BEF00004D8C888904201D3B04201D90020F0BDD7
:10BF00000120F0BD0A4810B5807860B1002401E03E
:10BF1000022C06D02046FEF78FFF641C042CF7D3BA
:10BF200010BD0324F6E7BDE81040FEF7A5BF0000F2
:10BF3000FC22002003480179C90702D00078FFF7EE
:10BF4000D7B87047FC220020F721018017214180DB
:10BF500000210171417170472DE9FF4100262348FE
:10BF600000F0ADFA2148001F074600F0A8FA204C67
:10BF700060680090A56800E000986946284004EBDE
:10BF800080000C30FFF782FF0028F5D101AA00994C
:10BF900001EA050304EB8303491CDB6842F8203007
:10BFA000401C00910228F2D3019800F00300012800
:10BFB0000BD0022810D10198032101EB9050009979
:10BFC000BDF80A6001EB900005E00198BDF80A6039
:10BFD000C0F3831008440090384600F06DFA08B1B1
:10BFE0000098606004B03046BDE8F08198300020D1
:10BFF000802C0020ACB0182270496846FDF750FA3A
:10C000006F4806906F494FF48070CDE907010990A1
:10C0100007236D4A06A96846FDF78EFF08B1FDF7B4
:10C02000DFFE4FF48041002001F07AF808B1FDF7FF
:10C03000D7FE00F0E3FEFDF719FF08B1FDF7D0FED3
:10C0400062490320FFF70AF808B1FDF7C9FE694607
:10C050000020FEF735FF08B1FDF7C2FE01F076F9CA
:10C0600008B1FDF7BDFE01F00BFB08B1FDF7B8FE0E
:10C07000002469460120009401F0A6F908B1FDF7FB
:10C08000AFFE684601F034FA08B1FDF7A9FE9DF84D
:10C0900008004FA120F00F00401C20F0F0001030ED
:10C0A0008DF808000B2202A87CDF08B1FDF798FE8E
:10C0B00000941020ADF800003C200194ADF802007F
:10C0C000ADF804404FF4C870ADF8060068467ADF5A
:10C0D00008B1FDF785FEFFF7E9FD4048019001A991
:10C0E0003F4800F018FB08B1FDF77AFE3D4800908C
:10C0F00069463D48FEF7A6FD08B1FDF771FEAC218B
:10C100006846FDF7E6F902208DF800008DF8024040
:10C1100005208DF803000120ADF84C0032498DF860
:10C120007C004020891F2290149144F2506023909B
:10C130002E4829902A4869460C30FEF757F908B175
:10C14000FDF74EFE264801210C30FEF74CF91C216C
:10C150006846FDF7BEF94FF4A030CDE900404FF43A
:10C16000F020029022480590032522488DF80C50BB
:10C170000690ADF80E408DF810406846FEF706FBBD
:10C1800008B1FDF72DFE1CA0FDF738FD1F48204922
:10C19000401AC00805EB00401EA100F055FF1048F2
:10C1A00003210C30FEF7F0F908B1FDF719FE00F09D
:10C1B00033FE0028FBD101F0DDF8F8E7F4F00100D0
:10C1C0000025002000260020B1EA0100B5AF0100E3
:10C1D0004E6F726469635F554152540089D3010008
:10C1E0001027002031E00100DC220020C9E001001E
:10C1F000EDE00100EBB601000D0A554152542073E9
:10C200007461727465642E0D0A000000DCFB01008D
:10C210007CFB01004465627567206C6F6767696E1F
:10C220006720666F722055415254206F76657220E8
:10C2300052545420737461727465642E00000000BF
:10C2400070B5144682880E4605462088111D0144AB
:10C25000921C994201D8FE2A01D90C2070BD521CB3
:10C2600032542088FF21401C80B220803154208825
:10C27000401C80B220808119288802F0F6FD2188B8
:10C28000084480B22080AA8842B1A96841B13044F4
:10C29000FDF706F92088A98808442080002070BD99
:10C2A000072070BD2DE9F047C5881E1DB6FBF5F7C8
:10C2B0008946B6FBF5F1044605FB176C4079166814
:10C2C0006843DDF820A0F718001F874200D9C61A7E
:10C2D000166001E02468491E0029FBD1A5EB0C077C
:10C2E0008846B74216D818E004EB0C00001D09EB95
:10C2F0000803BAF1000F3A4602D00146184600E0A2
:10C300001946FDF7CDF82468F61B4FF0000CB84431
:10C31000B54201D9374600E02F46002EE4D1BDE8F2
:10C32000F087000030B5024651B100F017FF002140
:10C33000074C08E034F821301568AB4202D1116097
:10C34000002030BD491C8142F4D3052030BD0000DF
:10C3500000000000F8B50F46017814460546012993
:10C3600001D1687830B12088821C9A4232D80129E4
:10C3700002D006E00720F8BD69780144891C994283
:10C3800028D8181A801E86B2ADF800602188B81C23
:10C39000084469467DDF0028EDD12978022904D0C0
:10C3A0006878BDF80020904205D3BDF80000B04287
:10C3B00001D809200AE00820012905D16978B14295
:10C3C00002D8ADF8001001E0ADF80060BDF8001033
:10C3D000FE2901D90C20F8BD2288491CB9542188B6
:10C3E000491C89B2218078542088401C2080BDF8E7
:10C3F0000010084420800020F8BD10B531B1B2FB18
:10C40000F3F403FB14241CB1092010BD0E2010BD51
:10C4100001600021416081608281C381084610BDB6
:10C4200070B50C460546FCF7F7FE002802D02188BF
:10C430002868084470BD10B50A8849888A4203D12B
:10C44000FCF72CFF012010BD002010BD70B50C467C
:10C450000546FCF706FF002802D0618828680844DA
:10C4600070BD10B50A8849888A4203D1FCF7F0FEF6
:10C47000012010BD002010BD01F01F0301229A40D1
:10C48000D243490900EB8100114600F021B84A0966
:10C4900050F8220001F01F0201219140084000D015
:10C4A0000120704701F01F0301229A40490900EB67
:10C4B0008100114600F01CB8002100F00FB80121E6
:10C4C00000F016B808B56A46FCF73DFF009808BDB5
:10C4D00008B56A46FCF71DFF009808BD08B56A4616
:10C4E000FCF717FF08BD08B56A46FCF7F9FE08BD62
:10C4F00008B56A46FCF700FF009808BD08B56A4613
:10C50000FCF72EFF009808BD38B5044600258DF8CD
:10C5100000506846FDF78CFD21686268086890420B
:10C520000ED9401E08600178238AE26801FB0325CA
:10C53000227A2168101AC0B20A79824200D20871A8
:10C540009DF80000FDF798FD284638BD38B5054632
:10C5500000208DF800000C466846FDF769FDE8688C
:10C56000298A201AB0FBF1F12A681068431C136075
:10C5700001709DF80000FDF77FFD38BD10B530B1AA
:10C58000017A42680368891AC9B21A6006E00E206F
:10C5900010BD03681A68541C1C601170491EC9B292
:10C5A000F7D2006800210171084610BDC20800F0F2
:10C5B00007030120895C98400840704710B5C20805
:10C5C00000F00703885C01249C402043885410BD80
:10C5D00028B1A1F11702E12A03D3072070470E20EA
:10C5E000704701800020704710B560B1C160F7212D
:10C5F00020F8021B20F8021BFB2100F8021BFFF7AA
:10C60000A3FC002010BD0E2010BD00007CB50C4620
:10C610008188002933D102880025102A06D0112AEA
:10C6200009D03A2A0BD0552A2ED129E001462046BE
:10C6300001F0A0FD28E0A01DFFF786FC24E02246C3
:10C64000408934F8063F834200D818466080172896
:10C6500000D217206080D06878B1607968B1184B3B
:10C66000D3E90003CDE90003ADF802106088ADF80E
:10C670000400D368694610469847657125717CBDF2
:10C680000146204601F0BCFDA07A0028F7D02846DC
:10C69000E188A5DF012680B11128F0D001F0CEF8A5
:10C6A00002460848084902B0401AC00806EB00409C
:10C6B000BDE8704005A100F0CBBCA572E6727CBD60
:10C6C00040F101007CFB01007CFB010073645F62B0
:10C6D0006C655F67617474635F65786368616E67DA
:10C6E000655F6D74755F7265717565737428292057
:10C6F00072657475726E65642025732E00000000EB
:10C7000020B10278DE2A03D0082070470E2070473F
:10C7100041800020704760B159B10278DE2A0AD00A
:10C7200009684160DE2101704FF6FF7141800020F1
:10C7300070470E207047082070477FB505460029D6
:10C740004DD0002D4BD008780C46DE2847D1A88864
:10C750006188884202D1204602F026FC2888012800
:10C7600025D002283BD011283AD0512837D135F8AE
:10C77000040F6188884232D1A978A81C02292ED1E1
:10C78000017A042903D0062901D0052927D10021E7
:10C79000009102228DF8002001914FF4C0720291A5
:10C7A0000391ADF80420007A05280FD010E0297A13
:10C7B0002046012913D1A988428891420FD1012135
:10C7C000017204B0BDE8704002F0EEBBADF8041099
:10C7D00028886946B0DF002801D0616888477FBD9E
:10C7E000A88861888842FAD14FF6FF7060807FBDCB
:10C7F00000F180400068002800D00120704708B593
:10C8000000F18040002101600068009008BD000038
:10C8100070B50B4C207808B185250FE00020A06092
:10C8200060602061E060074801F044F8054600F0D0
:10C8300073FF08B901F028F801202070284670BD68
:10C8400054290020F1B5010038B500258DF80050BD
:10C850006846FDF7EDFB074CE068401EE060E068CD
:10C8600010B901F037F8A5709DF80000FDF704FC41
:10C8700038BD000054290020F0B50546047815485D
:10C8800089B0164640F82420124A0869121DA2F108
:10C89000080742F82400487F385520226846FCF7F4
:10C8A000FFFD04942878385C48B10EB10A4A00E0D4
:10C8B00000226946281D01F09FFA09B0F0BD0EB1B3
:10C8C000064A00E00022694605F10C0001F04AF931
:10C8D000F3E700002023002029ED0100CDEB01004B
:10C8E00030B40378054CE35C1BB130BC001D01F093
:10C8F000B9BA30BC0C3001F09DB900001C230020F7
:10C9000030B40378054CE35C1BB130BC001D01F072
:10C910002BBB30BC0C3001F003BA00001C230020FC
:10C920000FB408B50399002904D004AA00926A46FE
:10C9300000F00FF801B05DF814FB10B582680446F2
:10C94000002A05D0D4E90403216898470020A0609C
:10C9500010BD2DE9FC4791460C00804676D014F8B6
:10C96000011B39B125290ED04046FEF7F1FC207895
:10C970000028F4D198F80C00002867D04046BDE8A4
:10C98000FC47FFF7DABF0020012221782B291BD0BA
:10C990002D2902D0302908D102E040F0010001E049
:10C9A00040F00200641C002AEFD100252A290ED095
:10C9B0002178A1F130020A2A11D205EB850201EBA0
:10C9C0004205641C303DF1E740F00400EAE7D9F885
:10C9D00000100B1DC9F800300968641C0D44217853
:10C9E00000232E290BD114F8011FA1F130020A2ACD
:10C9F00005D203EB830201EB4203303BF3E76C29E2
:10CA00000DD068290BD0692921D00BDC252918D03D
:10CA1000582931D063290ED0642915D117E014F8B4
:10CA2000011FECE7702969D0732932D075291BD01A
:10CA3000782909D120E0D9F80000011DC9F80010BB
:10CA400001784046FEF784FC641C90E76CE0D9F85E
:10CA500000100A1DC9F800200968CDE900500A221B
:10CA60004046FFF77DF9EFE7D9F800100A1DC9F835
:10CA7000002009680A2206E0D9F800100A1DC9F84A
:10CA8000002009681022CDE90050404602F0F2F97A
:10CA9000DAE7D9F8001000270A1DC9F800200E684F
:10CAA000C00705D112E04046761C7F1CFEF750FC03
:10CAB00031780029F7D104E0202140466D1EFEF7B1
:10CAC00047FCBD42C0D9002DF6D1BDE74EB130467E
:10CAD000FCF70AFD074604E0202140466D1EFEF7E4
:10CAE00037FCBD4206D9002DF6D103E04046761C46
:10CAF000FEF72EFC31780029F8D1A5E7D9F800001F
:10CB0000011DC9F80010056830214046FEF720FCE1
:10CB100078214046FEF71CFC08200021CDE90001E9
:10CB2000034610222946B0E7BDE8FC8770B541EA0C
:10CB30004201DDE904564FF0A04441EA830141EA95
:10CB4000052104EB800041EA0641C0F8001770BDE2
:10CB500070B541EA4201DDE904564FF0A04441EAD4
:10CB6000830141EA052104EB800041EA0641C0F857
:10CB7000001770BD70B541EA4201DDE904564FF07F
:10CB8000A04441EA830141EA052104EB800041EA27
:10CB90000641C0F8001770BD70B541EA4201DDE9F9
:10CBA00004564FF0A04441EA830141EA052104EB19
:10CBB000800041EA0641C0F8001770BD1CB5002294
:10CBC0000B46009211460192FFF7D4FF1CBD1CB525
:10CBD00000220B46009211460192FFF7DDFF1CBDBB
:10CBE0001CB5002100910B46012201911146FFF76F
:10CBF000C1FF1CBD1CB5002100910B460122019113
:10CC00001146FFF7C9FF1CBD4FF0A04202EB8000A8
:10CC1000D0F8002722F44032C0F80027D0F80027CF
:10CC200042EA0141C0F80017704701224FF0A043CB
:10CC3000824011B1C3F808257047C3F80C2570472E
:10CC400018B5084B6C4601441B68009306E000BF12
:10CC500054F82030D3F81035401C08C28142F7D870
:10CC600018BD000060F10100034908B50844002127
:10CC700001600068009008BD006000400249405813
:10CC8000012800D0002070470060004030B5154AF0
:10CC900001460020D2F8104423460AE0DB681D79E3
:10CCA000854205D1401C0A28F6DB4FF0FF3030BD2D
:10CCB0001B68002BF2D1431CF9D0CB681871D2F855
:10CCC000103443B1DB68CC681B682360D2F81024B1
:10CCD000D268116030BDC2F81014C96800220A6021
:10CCE00030BD0000802C00207047FCF741BD70472C
:10CCF00008B5034A00924023024A00F005F808BD37
:10CD0000D5E60100E82A0020F0B595B01C4615468E
:10CD10000E4608461A9F00F0F3FA182109A8FCF7FE
:10CD2000D8FB0E97CDE909540023082203A9304609
:10CD300000F0FBFA05980690BDF81000ADF81C0055
:10CD4000BDF81200ADF81E0000208DF821000399F7
:10CD5000082501F00300012802D0022816D02FE098
:10CD6000C1F3C200C1F383178C0A8DF82000BA000A
:10CD70002B460FA9304600F0D8FA09A8009006AB60
:10CD80003A460FA9204600F017FA19E0C1F3C20095
:10CD90008C0D8DF82000082C01D2274600E00827D2
:10CDA0002B463A460FA9304600F0BFFA3D44E41B3B
:10CDB00009AB06AA39460FA800F05AF9002CEAD1AF
:10CDC000304600F0A3FA15B0F0BD00000A4A012970
:10CDD00002EBC00007D0022907D0032907D004299D
:10CDE00007D0002070470220704704207047007968
:10CDF00070474079704700007CFB010010B5FFF7D9
:10CE000074FF04210348FFF741FF02490120C9686C
:10CE1000487110BD6CFB01002DE9F04F8DB0FEF79D
:10CE2000AFFA18B100200DB0BDE8F08F7D4C4FF087
:10CE3000000BC4F818B4BFF34F8F60680290A56868
:10CE4000D846284004EB80000CE000BFD4F818045A
:10CE500070B921680298814201D86160E2E72840F8
:10CE600004EB80000C3002A9FFF710F80028EDD188
:10CE7000002009AA029901EA050304EB8303491C77
:10CE8000DB6842F82030401C02910228F2D3099856
:10CE900000F00301022902D001294DD0A8E0810D44
:10CEA00050228946B2EB905F00D850210F4667F3BD
:10CEB0009F50099008315C4800F0D9F9060077D0FE
:10CEC00000F01EFA4346082209A9304600F035FA60
:10CED000029908F1080A2940681A8000001D87425B
:10CEE00023D9504D0C3530B1C2B204EB8101381A50
:10CEF00090460C3104E02946FAB2002590462846B7
:10CF0000C7B25346304600F018FA0AEB08032DB1B9
:10CF10003A4629464FEA060000F00FFA029909F155
:10CF2000030001EB9000029039E004EB81015346CD
:10CF30003A4630460C31EFE7C0F38311062900D39F
:10CF4000062161F389100990C0F38310801C8100D1
:10CF5000354800F08CF906004AD000F0D1F943467C
:10CF6000082209A9304600F0E8F908F1080800276E
:10CF70000FE00298434600EA0501401C04EB8101E2
:10CF80000290042230460C3100F0D7F908F1040871
:10CF90007F1C0998C0F38310B842EAD846B1D4F890
:10CFA0001054D4F8180478B1304600F0AFF934E0EA
:10CFB0001EE0E8684079012804D12A6828463146F5
:10CFC00012689047E8680568002DF2D1304600F0FD
:10CFD0009DF98DF800B06846FDF72AF8D4F81804DA
:10CFE00008B9029860609DF80000FDF745F814E06C
:10CFF000D4F8104405E02168204689688847E06835
:10D000000468002CF7D109480949401AC0080221D8
:10D0100001EB004007A100F017F8FEF7B1F980F02E
:10D02000010000E7802C0020FCFB0100DCFB01007C
:10D030007CFB01004261636B656E647320666C75F6
:10D04000736865640000000000231A4601F030BCDC
:10D0500008B5012300926A4601F02AFC08BD1CB500
:10D06000CDE9002302236A4601F022FC1CBD00002A
:10D070002DE9F0470E4680461C469246082940D8C6
:10D0800094F80C90002020731946104601F092F994
:10D090000025B54206D218F805201BA12046FFF74F
:10D0A0003FFC03E01AA12046FFF73AFC6D1C082D57
:10D0B000EFD318A12046FFF733FC0025B54212D26A
:10D0C00018F805707E2F08D8FCF7E6F90068C05DF7
:10D0D00010F03E0F01D03A4600E02E220EA120466D
:10D0E000FFF71EFC03E00DA12046FFF719FC6D1CA5
:10D0F000082DE3D301222146504601F03DF984F882
:10D100000C90BDE8F0870000202530327800000048
:10D11000202020007C00000025630000200000008B
:10D120000B4810B5FF218160002101604160C0F80B
:10D130001814C0F8141480F82014064800F0E4F81D
:10D14000002803D1044800F021F9002010BD0000A0
:10D15000802C0020FCFB010048F301000248034939
:10D16000401AC00870470000FCFB01007CFB010076
:10D1700013B56846FFF7D6F808B100201CBD024879
:10D18000009950F831001CBD7CFB010070B50948C6
:10D190000125D0F8104480F8205407E0E06845717C
:10D1A0002168204649688847E0680468002CF5D16A
:10D1B00070BD0000802C00202DE9FF4781460C9DAA
:10D1C00000200C462F7B28739846164629461846A1
:10D1D00001F0F0F8072E42D2DFE806F004090F163E
:10D1E0001F2A360049462846FFF79AFB37E0494692
:10D1F00028462268FFF794FB31E0D4E90023494632
:10D200002846FFF78DFB2AE0A0680090D4E90023B0
:10D2100049462846FFF784FB21E0D4E90201CDE925
:10D220000001D4E9002349462846FFF779FB16E0C0
:10D2300004F1080007C88DE80700D4E90023494637
:10D240002846FFF76DFB0AE004F108000FC88DE8DF
:10D250000F00D4E9002349462846FFF761FB00226E
:10D260002946404601F088F82F73BDE8FF872DE975
:10D27000F041058A80462D1F4819C01CB0FBF5F00F
:10D28000C6B24046FFF740F9041E19D000202071B5
:10D2900001206071E58000272546761EC4F80080D5
:10D2A0000BE04046FFF730F960B16179491C6171CC
:10D2B000286005467F1CC0F80080B742F1D32046A5
:10D2C000BDE8F081204600F002F80020F8E72DE9E3
:10D2D000F041457901466B1E002201E00968521CAD
:10D2E0009A42FBD30F680146002605E038460C68D9
:10D2F000FFF72CF92146761CAE42F7D3BDE8F0814A
:10D300000121001DFFF7DEB8FFF738B910B504465C
:10D310000121001DFFF7F2F810F0FF0F04D12046A5
:10D32000BDE81040FFF7D3BF10BD1CB5019201222C
:10D33000009201AAFEF7B6FF1CBD1CB501920022A7
:10D34000009201AAFEF7AEFF1CBD0000064910B511
:10D3500000204870091D0860BFF35F8F034904482F
:10D3600000F0FEF9002010BD9C230020E0F1010038
:10D37000DC2A002010B500F0CFF908B141DF10BD64
:10D3800020BF40BF20BF10BDFCF72ABD826800212E
:10D39000916082681161826851618268D16082689F
:10D3A000516080680160704708B5002242504058C3
:10D3B000009008BD20B10349096801600020704752
:10D3C0000E207047CCF301002DE9FE4307460E46C0
:10D3D0000846FFF7EFFF002878D10025009501955A
:10D3E00006208DF800704FF00108ADF8040002959A
:10D3F0008DF8028069462020326869DF3449354A59
:10D40000891AC908012202EB014430B100F016FA72
:10D41000024620463049FFF71BFE00950195029514
:10D420008DF8018069464020326869DF30B100F034
:10D4300005FA024620462949FFF70AFE00958DF8B5
:10D440000070F720ADF8020001950295694623208F
:10D45000326869DF30B100F0F1F902462046204918
:10D46000FFF7F6FD0095019502958DF8008069465D
:10D470000120326869DF30B100F0E0F90246204651
:10D480001849FFF7E5FD4FF4B06000900195029553
:10D490006946A120326869DF30B100F0CFF9024659
:10D4A00020461149FFF7D4FD0095019502958DF8AE
:10D4B00000506946A020326869DF30B100F0BEF943
:10D4C000024620460949FFF7C3FD0020BDE8FE8360
:10D4D000ECFB01007CFB0100C8F9010010FA01001F
:10D4E0005CFA010028F9010074F90100D4F8010088
:10D4F0002DE9F0410546076860DF804619491A4862
:10D500002A68081AC608BA4219D9022000EB064454
:10D5100016A12046FFF798FD20463A461FA12B682A
:10D52000FFF79DFD4FF08050D0F80C012968800274
:10D5300000F10050421A204625A1FFF789FDB8F1FD
:10D5400000004FF001040AD000F078F9024604EB25
:10D5500006402AA1FFF77CFD4046BDE8F0812F4838
:10D560000470F9E7ECFB01007CFB0100496E737568
:10D570006666696369656E742052414D20616C6C0A
:10D580006F636174656420666F72207468652053F0
:10D590006F66744465766963652E00004368616E4A
:10D5A0006765207468652052414D20737461727400
:10D5B000206C6F636174696F6E2066726F6D2030CE
:10D5C00078257820746F20307825782E00000000B0
:10D5D0004D6178696D756D2052414D2073697A6592
:10D5E00020666F72206170706C69636174696F6E20
:10D5F00020697320307825782E00000073645F6204
:10D600006C655F656E61626C652829207265747552
:10D61000726E65642025732E000000000724002030
:10D6200030B51548ADF5017D0078002821D04FF4C4
:10D63000FA7500BFADF8005280A9684661DF38B1C5
:10D64000052816D00DF5017DBDE83040FCF7C8BBBC
:10D650006C460A497DA800F083F806E0D0E9002175
:10D66000204690477DA800F092F87F980028E1D0EE
:10D67000F4E70DF5017D30BD07240020D0F3010053
:10D680007CB5194C207808B108207CBD0120A07021
:10D69000002000F0E9FF112819D0002000F0FCFF65
:10D6A00012480026006801908DF800606846FCF77B
:10D6B000BFFC0F4901A810DF05000AD00020207030
:10D6C0009DF80000FCF7D8FC2DB128467CBD002059
:10D6D0007CBD0120F3E7A670667001F09FF8012081
:10D6E00000F0DAFFF3E700000424002064F30100F7
:10D6F0005D9D01000EB50749684600F031F805E070
:10D70000D0E900108847684600F041F802980028E8
:10D71000F6D10EBD80F3010001480078704700008B
:10D72000042400201FB568464BDF30B1052814D013
:10D7300004B0BDE81040FCF753BB084901A800F055
:10D740000FF806E0D0E900210098904701A800F00A
:10D750001EF803980028E6D0F4E71FBDECF30100A3
:10D76000016009684160AFF3008010B5D0E9002185
:10D770005368994201D1002104E0D1E90034A34269
:10D7800002D01946816010BD08314160F0E7816820
:10D7900000290BD0026892680A44826041684B6895
:10D7A0009A4203D108314160FFF7DFBF704770B57F
:10D7B0000D460646446804E0B2682946904718B111
:10D7C000246820680028F7D120682860256070BD93
:10D7D00040680068704741680868002801D0026806
:10D7E0000A60704702460020526806E08B4203D16F
:10D7F00008681060012070471A461368002BF5D1A5
:10D80000704700000C4A10B502F594730EE0991AA7
:10D81000C91001EBD171491002EBC1010C688442BF
:10D8200001D90B4602E005D201F108029A42EED37B
:10D83000002010BD486810BD00F2010000B5FFF7E0
:10D84000E1FF002800D1014800BD0000ECF101001B
:10D850004058002800D00120704708B500224250EF
:10D860004058009008BDD0F80403084000D00120C3
:10D8700070474058002800D00120704708B50022AA
:10D8800042504058009008BD08480068012110F03F
:10D89000010F06D14FF0E020C02280F80024C0F82C
:10D8A00000110349012008607047000000E100E01A
:10D8B000180500400649024600200B790BB185206F
:10D8C00070470A6001220A7100224A717047000005
:10D8D0002823002004490120086004480168C1F39E
:10D8E00000410029FAD170470C00004018040040A4
:10D8F000002802D00149800108477047B1F10100BA
:10D900002DE9F0418846054600F01EFD234E002813
:10D9100028461AD0FDF788FD304490F84800800969
:10D92000032802D001280ED007E04FF0A040D0F825
:10D930001005E84010F0010F05D003212846BDE88E
:10D94000F041FFF761B90221F8E700F009FD002876
:10D9500022D02846FDF768FD04464FF4807000EBA6
:10D9600084000F4F81B207EB8400D0F8102542F0FD
:10D970000102C0F810250846FFF776F9B8F1000F4C
:10D980000AD02846FDF750FD56F82000002803D0A5
:10D990000120A040C7F80403BDE8F08168290020F9
:10D9A000006000402DE9FC41DFF8BC80044608EB34
:10D9B0000400002790F930001346C0170E46401CA3
:10D9C00001D008274CE0B0781946C0F34002204649
:10D9D000FDF706FD0546401C41D0B078410719D43B
:10D9E000C0070AD04FF0A04000EB8401D1F8000737
:10D9F00020F00200C1F8000707E0002173782046FC
:10DA000000910A460191FFF7A3F8174920465431C7
:10DA1000FEF7D4FDB078800718D51448317800EBB4
:10DA20008500D0F81025124B1A40C0F810254FF48D
:10DA3000F8524FF4403302EA042203EA01410A4358
:10DA4000D0F810150A43C0F8102509E008EB0500CE
:10DA5000327810F8481F41EA8211017000E0042773
:10DA60003846BDE8FC8100006829002000600040C5
:10DA7000FFE0FCFF4FF0A041D1F81015C14011F0BC
:10DA8000010000D00120704770B5174D95F858007F
:10DA900008B1082070BD0020411E2A18401CC0B2E9
:10DAA00082F830102028F8D300242046FDF78AFCA5
:10DAB000641CE4B20C2CF8D300240C49C0206C6523
:10DAC00081F8000401264020891FC1F800014FF4AD
:10DAD000BE70FFF7C9F80649F007C1F8040385F8DE
:10DAE0005860204670BD00006829002006E000E074
:10DAF00000600040034890F85800002800D0012042
:10DB000070470000682900200121B1EB507F01D14E
:10DB1000012070470020704738B50D4600F096FC94
:10DB2000040014D000208DF800006846FCF780FA4D
:10DB3000207928B19DF80000FCF79EFA112038BD2D
:10DB40000120256020719DF80000FCF795FA002067
:10DB500038BD00000149024801F050B8C429002036
:10DB6000002000402DE9F0410546007916460F4699
:10DB700000EB40012C4A01EBC00102EB810494F858
:10DB80002A1011B10820BDE8F081284951F8201071
:10DB90002868FFF7C1FF08B11120F4E7394628468D
:10DBA000FCF784FA66603869206030004FF00106A7
:10DBB0002DD03F7F4FF48E712868FFF74EFE4FF453
:10DBC000A2712868FFF749FE28681949C0F80413B4
:10DBD00028684FEA471140F30730002806DA00F0C2
:10DBE0000F0000F1E02080F8141D03E000F1E020B8
:10DBF00080F80014286840F3073000F01F0106FA8F
:10DC000001F14009800000F1E020C0F8001128680F
:10DC10000421C0F800150020A061E06184F829000B
:10DC200044F8140FA675AEE7C429002064F1010082
:10DC3000800002002DE9F05F054600794FF401767F
:10DC400000EB400303EBC000344B03EB80040020E7
:10DC5000636813B12B68C3F80863A3694FF0000928
:10DC60006BB1E06938B1606810B12868C0F804632E
:10DC70001120BDE8F09FE2610120216105E0C4F8B8
:10DC80002490A261E160C4F81C9094F8291001432B
:10DC900002D1284600F0AFFC60680028286803D055
:10DCA000C0F804630020E4E74FF4A2763146FFF7A2
:10DCB000D4FDB2464FF4927B59462868FFF7C8FD61
:10DCC00006464FF484712868FFF7C2FD804651462E
:10DCD0002868FFF7BDFD074648EA07003043EBD050
:10DCE00056EA070007D12146286800F055FCA169D3
:10DCF000606A8142E0D8C4F818900EB10320B8E7FA
:10DD00000FB10F20B5E794F82910012000292968E8
:10DD100001D00860C6E74860C4E70000C4290020BD
:10DD20002DE9F05F054600790B4600EB400101EB61
:10DD3000C000244901EB8004284600F045F810B1EA
:10DD40001120BDE8F09F62614FF00009C4F82090F7
:10DD5000A36084F828904FF48E784E464146286898
:10DD6000FFF77BFD28684FF0010AC0F808A02146A4
:10DD7000286800F073FE606808BBD5F800B06769DA
:10DD80000FE000BF94F8280008B10F2615E04146C7
:10DD90005846FFF75DFD0028F4D02146584600F0B4
:10DDA0005DFE206AB842F2D3574641462868FFF725
:10DDB0004FFD0028F9D02868C760C4F81490304699
:10DDC000BFE70000C4290020007900EB400101EB0F
:10DDD000C000044901EB80004069002800D0012008
:10DDE00070470000C42900200149024800F0B4BF78
:10DDF000F0290020002000402DE9F041054616469C
:10DE000000790F46154A00EBC00102EB810494F83B
:10DE1000201011B10820BDE8F081114951F82010FF
:10DE20002868FFF779FE08B11120F4E73946284643
:10DE3000FCF780F96660386920601EB1397F28469A
:10DE4000FDF7E2FF28680821C0F800150020A06156
:10DE5000E0616061012184F82010DCE7F0290020F6
:10DE600068F101002DE9F05F044600790E4600EBF1
:10DE7000C001DFF8F0A017460AEB81053046FFF736
:10DE800043FEB0B168684FF000084FF4047910B158
:10DE90002168C1F80893A8694FF0000B80B1E869C8
:10DEA00048B1686810B12068C0F804931120BDE83B
:10DEB000F09F1020FBE7EF614FF001082E6102E0B8
:10DEC000EE60C5E9067B00254FF488712068FFF7F6
:10DED000D5FC4FF4A2712068FFF7D0FC2068C0F891
:10DEE0003465C0F838752068B8F1000F12D0D0F84A
:10DEF000001241F02001C0F800122079D04600EB5A
:10DF0000C0010AEB8100406838B12068C0F8049372
:10DF10002846CCE701210160EFE74FF4887A4FF4FF
:10DF2000A27951462068FFF7A4FC074649462068BD
:10DF3000FFF79FFC06464FF492712068FFF799FCAB
:10DF4000014647EA06000843EBD0227902EBC20300
:10DF500008EB8302C2F818B001B10325002ED7D018
:10DF60000F25D5E7F02900202DE9F04704460E469D
:10DF70000079274900EBC00001EB800517463046C9
:10DF8000FFF7C2FD30B1204600F044F820B1112067
:10DF9000BDE8F0871020FBE76F61AE604FF490772B
:10DFA0004FF0000839462068FFF768FC4FF4AC7664
:10DFB00031462068FFF762FC2068AA686969C0F8EA
:10DFC0004425C0F8481520684FF00109C0F80890B2
:10DFD0006868D0B9BA4651462068FFF74AFC074640
:10DFE00031462068FFF745FC0743F4D010B14FF0ED
:10DFF0000F0808E02068C0F80C9031462068FFF751
:10E0000038FC0028F9D0002068614046C0E70000D5
:10E01000F02900200079054900EBC00001EB8000E9
:10E020004069002800D0012070470000F02900203E
:10E030002DE9F04105460078002828D115481649F9
:10E040000026401AC008012101EB004710E02869B2
:10E05000805DFBF7C3FF040009D0112CF7D03846D0
:10E0600022460EA1FEF7F4FF2046FBF7B9FE761C10
:10E07000A88AB042EBD8A98A2869084410F8010C94
:10E080000D2804D10A20FBF7A9FF1128FAD0BDE81A
:10E09000F0810000DCFB01007CFB01004661696C43
:10E0A000656420726563656976696E67204E5553B5
:10E0B000206D6573736167652E204572726F7220E3
:10E0C000307825782E20000010B550B103280CD1EF
:10E0D0000220FCF7B7FF002807D0BDE81040FBF78F
:10E0E0007FBEBDE8104000F079BB10BD007800286D
:10E0F00007D104483B21408876DF002801D0FBF798
:10E100006FBE7047D0220020F0B58BB0002601967C
:10E110000D4604468988406901AAFCF74FF80AA811
:10E12000CDE908600227ADF82070ADF822602189A2
:10E13000A88808AAADDF002819D1A069002816D048
:10E140000998FCF722FE002811D0019E0EB1012093
:10E150003070182102A8FBF7BCF98DF80870039401
:10E16000A888ADF810000596A16902A888470BB0F1
:10E17000F0BD000070B502468888C97B00EB400303
:10E1800002EB4304A41D012901D1118821802188BB
:10E190006288914213D9A5DF012578B111280FD0EB
:10E1A000FFF74CFB024607480749401AC00805EB39
:10E1B0000040BDE8704005A1FEF74ABF657170BD23
:10E1C000257170BD7CFB01007CFB010073645F6204
:10E1D0006C655F67617474635F65786368616E67BF
:10E1E000655F6D74755F726571756573742829203C
:10E1F00072657475726E65642025732E00000000D0
:10E200007CB506468D88C88805EB450106EB4104C0
:10E21000A41D172800D217202188814200D8084663
:10E2200060800020207121882846B5DF60B1FFF7AB
:10E2300005FB02460F481049401AC008012101EBB6
:10E2400000400EA1FEF704FF6079002810D1F068AD
:10E2500000280DD01549D1E90201CDE90001ADF842
:10E2600002506088ADF80400F26869463046904775
:10E270007CBD00007CFB01007CFB010073645F62DD
:10E280006C655F67617474735F65786368616E67FE
:10E29000655F6D74755F7265706C79282920726591
:10E2A0007475726E65642025732E000040F10100C4
:10E2B000F0B587B00C4605468E1D8988406906AAD0
:10E2C000FBF77CFF18216846FBF703F90195A0884E
:10E2D000069AADF80800039231882B89002704F1D3
:10E2E0001200994202D17389022B0DD0AA89914262
:10E2F0001ED1A96900291BD08DF800700490708987
:10E30000ADF81400A96911E0002A11D0FCF73DFD19
:10E3100020B1069901200870022002E006980770DB
:10E3200003208DF80000A969002901D068468847BC
:10E3300007B0F0BD0068012803D0022801D00020FA
:10E3400070470120704700000449084490F93000EC
:10E35000082801DB01207047002070476829002051
:10E360000449084490F93000082801D20120704780
:10E37000002070476829002010B50C46017A052955
:10E3800008D0407A38B1084808A102682046FEF754
:10E39000C7FA00E01AB106A12046FEF7C1FA2046EE
:10E3A000BDE81040FEF7C9BAE02300202573000045
:10E3B0000D0A000038B5C3880D46044633B114A0D9
:10E3C000009015A216A12846FEF7AAFA217A05297F
:10E3D0001CD0607A48B1A088FEF7F8FC164951F8C5
:10E3E000202016A12846FEF79BFAA0880021FEF700
:10E3F000BFFE03461049207A143951F8202001B09D
:10E400002846BDE830400EA1FEF78ABA38BD0000AC
:10E410001B5B306D000000001B5B313B33316D0036
:10E4200025734C6F67732064726F70706564202869
:10E4300025642925730D0A00E023002025730000C0
:10E440003C25733E2025733A200000000349884292
:10E4500001D10348704700207047000000200040B1
:10E460003023002070B50546FDF74DFA134C40B13E
:10E47000D4E904024FF08071411842F10000C4E970
:10E48000041000212846FDF78FF930B1606820B1F3
:10E49000606800F053FA0020606001212846FDF713
:10E4A00083F918B1FDF71AFCC4E90601284600F00B
:10E4B00071FA2846BDE8704000F034B850230020BF
:10E4C00070B5054600200C460870FDF707FCD5E93D
:10E4D0000223101A63EB010300263146361A9941D4
:10E4E00012DAB0F5350F03D3FBF7AEFC0B49421837
:10E4F0004FF4960300210A48FDF711FA10B10D28D8
:10E5000006D009E0012070BD00210548FDF742F961
:10E51000284600F013FA2070002070BDFFFFB40001
:10E5200058230020F8B51A4C074600261948FFF773
:10E530004FF9D0B1616871B1D0E902106268D2E9D7
:10E540000232C91A904120D26068007F18B1616818
:10E550001048FFF72CF900F08DF905466946FFF7E2
:10E56000AFFF98B1606840B10AE0606800280CD144
:10E570003846BDE8F840FDF7CEB93846FDF7C7F993
:10E5800065609DF800000028D0D1F8BD6660CDE739
:10E59000502300207CF1010070B5054688690C46C7
:10E5A00000284FF4847128460AD0FFF756F9D5F8B1
:10E5B0001805626AE1688854606A401C606270BD38
:10E5C000FFF74BF9D5F8180570BD1FB501238DF87D
:10E5D0000030CDE90121D0E90012684690471FBD07
:10E5E0001FB501238DF80030CDE90121D0E90012DB
:10E5F000684690471FBD10B5044600684FF49271FD
:10E60000FFF72BF94FF484712068FFF726F9206893
:10E610000121016010BD000038B50021012548B17D
:10E6200001280CD0032809D1FFF72EF9BDE83840A6
:10E63000FEF70AB94FF0E020C0F8805138BD8DF8E0
:10E6400000106846FBF7F4FC064C207808B9FEF78A
:10E65000DFF8E068401CE060A5709DF80000FBF763
:10E660000BFD38BD542900203EB5044609496846D3
:10E67000FFF776F808E000BFD0E900212046904778
:10E6800030B16846FFF783F802980028F4D13EBD08
:10E6900011203EBD68F301003EB5044608496846B6
:10E6A000FFF75EF807E000BFD0E900212046904761
:10E6B0006846FFF76CF802980028F5D13EBD0000CF
:10E6C00074F3010002498969002900D008477047A6
:10E6D000BC2800202DE9F0411400884618D0002500
:10E6E0000E4F032608EB050122460020FBF742F8F7
:10E6F0000544241A40B93878002809D008494FF455
:10E700007A408847761E05D001203870002CE9D168
:10E71000BDE8F08100203870FAE70000A82300204F
:10E7200041F301002DE9F0410746806A144688460E
:10E73000C8B3002531E000BFB96A05EB450001EB25
:10E740008006B088801CFE2802D90C20BDE8F0812C
:10E750002288401C08F8020020881622401C80B243
:10E76000208008F800202088401C80B2208000EB28
:10E770000801308800F079FB2188084480B22080AD
:10E78000B28842B1B16871B14044FAF789FE20887D
:10E79000B188084420806D1CEDB297F82C00A84287
:10E7A000CAD80020D2E7FFE70720CFE70A7806287B
:10E7B00022F0FF020A7010D2DFE800F0030507091B
:10E7C0000B0D002008E0112006E0212004E031209C
:10E7D00002E0122000E022200870704710B50020EF
:10E7E000FCF730FC08B1FBF7FBFAFCF785FB08B13E
:10E7F000FBF7F6FA33DF002803D0BDE81040FBF743
:10E80000EFBA10BD002805D103490120487000204F
:10E81000FCF7DABE704700005429002010B516201E
:10E82000FBF704FAA0B1114890F800044009082849
:10E8300011D20121814011F0EC0F0CD00C488268FC
:10E840004FF480016AB1016841F48001016010BD9C
:10E8500042F2010001E042F20200BDE81040FBF785
:10E86000BFBA4FF0E020C0F8001110BD16E000E084
:10E87000D02A00200148FEF7AEBF00007CF1010065
:10E88000C207002A03D000BF4FF00F0201E04FF093
:10E89000F00201D04FEA0111044B03EB500318784A
:10E8A00000EA020040EA010018707047382A002090
:10E8B0002DE9F84F204D924689460646984601229A
:10E8C00069461846AF68FCF7FBFC58B30098002176
:10E8D0000446801C09E000BF00EA07035AF8212023
:10E8E00005EB8303401C491CDA604145F4D34FEA31
:10E8F000164AFCF745FF4AEA0041601C384005EB28
:10E9000080003C4005EB8402C160D06866F3C5001E
:10E9100068F3891069F39F2020F00300401C20F069
:10E920000400D06095F8200402E000BFFEF774FAFE
:10E930000028FBD1BDE8F88F802C002070B504467C
:10E94000124800250078F8B1F4B1207FE0B1FDF75E
:10E95000C5F9D4E90223801A994110D32069002611
:10E9600000B92677D4E905108847206960B1217F76
:10E9700051B1D4E9022110187141C4E902012146C4
:10E980000348FEF714FF0125284670BD50230020E0
:10E990007CF10100F8B51B4C69462068FDF756FD77
:10E9A00000260127184D29E0017821B101290CD05A
:10E9B00002291BD114E041680A7FBAB90F77416878
:10E9C00010480830FEF7F3FE10E0416868688142A5
:10E9D00001D16E600AE00B480830FEF703FF05E046
:10E9E000FFF748FF08B10677FAE72F7069462068FD
:10E9F000FDF721FD69462068FDF728FD0028D3D1E9
:10EA0000F8BD000074F1010050230020F8B50B4C54
:10EA10000D46064669462068FDF702FD58B10670AE
:10EA2000456069462068FDF71CFD10B10448FCF7FD
:10EA300059FF0020F8BD0420F8BD000074F101006A
:10EA4000582300200348806841080348002240689A
:10EA5000FBF73ABA382300206CF1010070B50C4680
:10EA600005464FF48E71FEF7F8FE216AA068415CFE
:10EA7000206A401C2062C5F81C1570BD1FB500221D
:10EA80008DF800200291816801914261D0E9001265
:10EA9000684690471FBD1FB500228DF800200291E7
:10EAA000816801914261D0E90012684690471FBD1C
:10EAB00038B5017841B1012901D002292FD1406830
:10EAC000BDE83840FBF78CB9164C154D207828442A
:10EAD000FBF718FA2078401CC0B22918207011F8F2
